:1000000017C042C167C139C237C2FBC135C234C251
:1000100033C232C231C230C22FC22EC22DC20060E2
:10002000006180006100620004840062006880005A
:1000300011241FBECFE5D1E0DEBFCDBFEEE1F0E081
:1000400040E017C0B591A59135912591059107FD27
:100050000CC095918591EF01F92FE82F05900D9235
:10006000A217B307D9F7FE0104C01D92A217B30768
:10007000E1F7EF32F40731F703D0E5C1F894FFCF91
:10008000F89417BABC9A1ABC13BE83B7846083BFB6
:1000900012BE84EB8DBD8DB58BBD80B7806880BFEF
:1000A00080B78B6080BF1FBCC7D0109264001092D5
:1000B000630010926000D4E006E012E0FF24F394A5
:1000C000809160008230E9F028F4882359F0813073
:1000D000A9F087C0843051F108F44CC0863009F48F
:1000E0005CC07FC085B78D7F85BF8BB780668BBFB7
:1000F00085B38C6085BB7894F09260005BD11093DF
:10010000600046D10DD1811103C01DD1882359F063
:1001100081E090E089D180E090E086D18DD165D1F9
:10012000D09360005EC0009360005BC031D11ED1EF
:10013000882321F05AD1D093600053C0F1D0C82F4A
:1001400002D18C2BA1F082B78F3F69F012BE81E003
:1001500090E06AD18DEE92E00197F1F700C00000C7
:1001600080E090E061D141D1D09360003AC000932B
:10017000600037C0809162008F5F80936200809141
:100180006200882329F0109262000093600029C069
:10019000809161008093600024C03DD161D166D11F
:1001A00012BE1092600081E090E03ED18BED95E0B0
:1001B0000197F1F700C0000080E090E035D18BEDB1
:1001C00095E00197F1F700C0000081E090E02CD1AC
:1001D0008BED95E00197F1F700C0000080E090E022
:1001E00023D180916000843009F06ACF81E090E0F3
:1001F0001BD180E090E018D181E090E015D180E043
:1002000090E012D181E090E00FD180E090E00CD13D
:10021000DFD081E090E008D180E090E005D181E07E
:1002200090E002D180E090E0FFD081E090E0FCD04F
:0802300080E090E0F9D044CF1A
:1002380080E090E0F5D085EA9EE00197F1F700C0F4
:10024800000081E090E0ECD08FE493EC0197F1F7A7
:1002580000C0000080E090E0E3D085EA9EE00197CE
:10026800F1F700C0000081E090E0DAD085EA9EE076
:100278000197F1F700C0000080E090E0D1D0089528
:100288001F920F920FB60F9211242F933F934F9303
:100298005F936F937F938F939F93AF93BF93EF93E6
:1002A800FF93D4D082E080936000FF91EF91BF91DB
:1002B800AF919F918F917F916F915F914F913F91F6
:0C02C8002F910F900FBE0F901F90189503
:1002D4001F920F920FB60F9211242F933F934F93B7
:1002E4005F936F937F938F939F93AF93BF93EF939A
:1002F400FF9384E080936000B1D0FF91EF91BF91B0
:10030400AF919F918F917F916F915F914F913F91A9
:0C0314002F910F900FBE0F901F901895B6
:100320008091670081110BC080916600811109C026
:1003300081E090916500913029F080E0089580E09F
:06034000089580E008951D
:1003460080916700813059F480916600811109C05F
:1003560081E090916500992329F080E0089580E07E
:06036600089580E00895F7
:10036C0080916500813051F480916600813041F4B8
:10037C0090916700913029F080E0089580E0089515
:04038C0080E0089570
:1003900086B382FB882780F98093670086B38695B1
:1003A00081708093660086B383FB882780F98093F1
:0403B0006500089547
:1003B400379885B7877E806185BF789485B78062DA
:0C03C40085BF889585B78F7D85BF0895A3
:1003D000379885B7877E85BF789485B7806285BF5B
:0A03E000889585B78F7D85BF0895CD
:1003EA00F8948BB780628BBF85B7826085BF85B36F
:0803FA008C6085BB7894089526
:100402008F93809160008093610083E0809360000D
:040412008F91189519
:10041600F8948BB780648BBF85B78D7F85BF789442
:02042600089537
:10042800009711F4C4980895019709F4C49A08959F
:0E043800F89412BE89B7826089BF7894089547
:0E044600EC011AD018D0CE0118D0CE0117D07C
:0C045400F8948BB78F7B8BBF78940895D1
:0C046000F8948BB78F7D8BBF78940895C3
:0C046C00F89489B78D7F89BF78940895BB
:02047800C3CDF2
:02047A001895D3
:02047C000895E1
:02047E000895DF
:020480000895DD
:02048200FCDD9F
:010484000671
:00000001FF
