:1000000011C0ACC08FC0ABC09BC093C0A7C0A6C07E
:10001000A5C0A4C0A3C0A2C0A1C0A0C09FC00060D2
:100020000064800011241FBECFE5D1E0DEBFCDBF4C
:10003000EEE1F0E040E017C0B591A5913591259132
:10004000059107FD0CC095918591EF01F92FE82FDF
:1000500005900D92A217B307D9F7FE0104C01D92B7
:10006000A217B307E1F7E332F40731F703D06FC00B
:04007000F894FFCF32
:10007400F89480E886BD81E086BD83E080BD379832
:1000840017BA87B3836187BB1ABC13BE83B7856075
:1000940083BF12BE1FBC88E08EBD8AE18DBD84E49F
:1000A40089BF8BB780628BBF85B3896085BB12BE65
:1000B40089B7826089BF89B7846489BF1FBC8CB546
:1000C4008CBD80E680BF80B7836080BF7894D0E128
:1000D400C1E080916300813029F41092630088B3F9
:1000E4008D2788BB80916200813011F410926200E8
:1000F40080916100813029F41092610088B38C27CB
:0601040088BB01D0E6CF2C
:10010A00379885B7877E85BF789485B7806285BF23
:0A011A00889585B78F7D85BF089595
:0E0124008F9381E08093600078948F911895FE
:0E0132008F9381E08093630078948F911895ED
:0E0140008F9381E08093610078948F911895E1
:0E014E00EC0108D006D0CE0106D0CE0105D0BF
:02015C0051CF81
:02015E001895F2
:02016000089500
:020162000895FE
:020164000895FC
:0201660084DF34
:00000001FF
