:100000002DC0FCC28DC1FAC2B4C15DC2F7C2F6C236
:10001000F5C2F4C2F3C2F2C2F1C2F0C2EFC267C0CD
:1000200082C01CC197C0AFC037C1FFC00060006470
:1000300000060600640066800066006700060A008D
:10004000670068800068006900060B0069006A802C
:10005000006A006B00060C006B00738011241FBE49
:10006000CFE5D1E0DEBFCDBFECE2F0E040E017C06D
:10007000B591A59135912591059107FD0CC09591FC
:100080008591EF01F92FE82F05900D92A217B30784
:10009000D9F7FE0104C01D92A217B307E1F7EC35B2
:0C00A000F40731F703D070C2F894FFCFD2
:1000AC00F8948BD28FD293D25BD21092670081E0FE
:1000BC0080936600C4E0D1E016E005E08091660014
:1000CC00813009F0E6C010926600E09167008E2F37
:1000DC0090E08730910508F0DCC0FC01E15FFF4F38
:1000EC00099425D204D2D093670081E090E030D2FD
:1000FC0080E090E02DD281E090E02AD280E090E088
:10010C0027D281E090E024D280E090E021D281E0FF
:10011C0090E01ED280E090E01BD281E090E018D2FB
:10012C00BED180E090E014D281E090E011D280E06A
:10013C0090E00ED280916700823019F0C093670076
:10014C0003C0D0936600A5C099D181E090E000D2A5
:10015C0080E090E0FDD181E090E0FAD180E090E089
:10016C00F7D154D1811103C064D1882319F0C09305
:10017C0067008FC0109367008CC080D16DD188232D
:10018C00A9F0C093670081E090E0E2D180E090E0BC
:10019C00DFD181E090E0DCD180E090E0D9D181E04A
:1001AC0090E0D6D180E090E0D3D173C02FD1F82E5F
:1001BC0040D18F2991F181E090E0CAD189EF90E094
:1001CC000197F1F700C0000080E090E0C1D1CFD1E1
:1001DC0006D281115EC081E090E0BAD187EE93E047
:1001EC000197F1F700C0000080E090E0B1D1D8D0C9
:1001FC00D09370000093670010926900D093660052
:10020C0081E090E0A5D187EE93E00197F1F700C073
:10021C00000080E090E09CD13CC010936700E4D1DA
:10022C00C0D1D0937000D7D1B0D1B5D1DBD1109261
:10023C006700D093660081E090E08AD18FE697E169
:10024C000197F1F700C0000080E090E081D121C05F
:10025C00809169008F5F8093690080916900882389
:10026C0081F01092690081E090E072D198EC9A953F
:10027C00F1F780E090E06CD1D093660010936700AA
:10028C0008C0809168008093670003C046D1C0937A
:10029C0067002DD180917000813009F49CD0809141
:1002AC006700843009F00ACF80917000811106CF6D
:1002BC0081E090E04DD180E090E04AD181E090E087
:1002CC0047D180E090E044D181E090E041D180E0E2
:1002DC0090E03ED181E090E03BD180E090E038D1DD
:1002EC00F9D081E090E034D180E090E031D181E030
:1002FC0090E02ED180E090E02BD181E090E028D1ED
:10030C0080E090E025D181E090E022D180E090E087
:04031C001FD1D4CE4B
:100320001F920F920FB60F9211242F933F934F936A
:100330005F936F937F938F939F93AF93BF93EF934D
:10034000FF9384E08093670026D181E0809366006C
:10035000FF91EF91BF91AF919F918F917F916F919D
:100360005F914F913F912F910F900FBE0F901F9073
:020370001895DE
:100372001F921FB61F9211248F93809172008F5F7C
:100382008093720080917200853150F01092720059
:10039200809171008F5F8093710081E08093700083
:0A03A2008F911F901FBE1F90189549
:1003AC00B2D005D1109272001092710010927000B0
:1003BC0010926F002BD0882339F080E690E0909358
:1003CC00650080936400089580E690E0909365004A
:0603DC0080936400089507
:1003E20080916F00882391F081E090E0AED081E0AF
:1003F20080936B001092700080916A00813051F4FA
:1004020010926F0010926B00F6D004C010926B0035
:0604120081E00895089549
:1004180080916E0081110BC080916D00811109C01F
:1004280081E090916C00913029F080E0089580E09F
:06043800089580E0089524
:10043E0080916E00813059F480916D00811109C058
:10044E0081E090916C00992329F080E0089580E07E
:06045E00089580E00895FE
:1004640080916C00813051F480916D00813041F4B1
:1004740090916E00913029F080E0089580E0089515
:0404840080E0089577
:1004880086B3817080936E0086B382FB882780F9DB
:1004980080936D0086B383FB882780F980936C0076
:0204A8000895B5
:1004AA00379885B7877E806185BF789485B78062E3
:0C04BA0085BF889585B78F7D85BF0895AC
:1004C6008F93809167008093680082E08093670035
:0A04D60081E0809366008F91189575
:1004E000379885B7877E85BF789485B7806285BF4A
:0A04F000889585B78F7D85BF0895BC
:1004FA00F8948BB780628BBF85B7826085BF85B35E
:08050A00896085BB7894089517
:100512001FBC88E08EBD85E08BBD8AE18DBD84E481
:0405220089BF0895F0
:1005260080916F00811105C081E080936F00109269
:040536006A000895BA
:10053A0081E085BF8BB780628BBF85B3896085BB3D
:02054A00089512
:10054C00009711F4C1980895019709F4C19A089580
:10055C00009711F4C4980895019709F4C49A08956A
:0E056C001ABC13BE83B7856083BF12BE08950C
:0E057A00F89412BE89B7826089BF7894089504
:0E058800EC013AD038D0CE0138D0CE0137D0B9
:0C059600F8948BB78F7D8BBF789408958C
:0C05A200F89489B78D7F89BF7894089584
:0C05AE00F89489B78B7B89BF789408957E
:0C05BA00F89489B7846489BF7894089590
:0A05C60080E886BD81E086BD08953F
:0A05D00017BA87B3826187BB089554
:0805DA0083E080BD379808950D
:0805E20081E080936A00089596
:0605EA0080916B000895F2
:0405F00012BE08959A
:0405F40010BE089598
:0405F800B998089511
:0205FC0001CD2F
:0205FE0008955E
:0206000008955B
:02060200089559
:0206040051DDC6
:040606007AD5AAAB4C
:01060A0001EE
:01060B0006E8
:01060C0001EC
:00000001FF
