:100000002FC019C39DC218C3CAC2C9C114C313C328
:1000100012C311C310C30FC30EC30DC30CC36CC0F6
:100020006EC0CCC08BC098C0DEC0B1C029C132C187
:1000300050C155C17AC1B0C1A9C1A2C10060006858
:1000400000064200680070800070007100064A00DF
:10005000710072800072007300064B0073007C8098
:1000600011241FBECFE5D1E0DEBFCDBFECE3F0E051
:1000700040E017C0B591A59135912591059107FDF7
:100080000CC095918591EF01F92FE82F05900D9205
:10009000A217B307D9F7FE0104C01D92A217B30738
:1000A000E1F7E036F40731F703D072C2F894FFCFDE
:1000B000F89499D2A2D29CD25DD238D2A2D2ACD23C
:1000C00010926F0081E080936D00C4E0D1E016E0F3
:1000D00005E080916D00813009F088C010926D00BC
:1000E000E0916F008E2F90E08730910508F07EC080
:1000F000FC01E15FFF4F099458D2D0936F0081E07B
:1001000090E030D28DEA8A95F1F7000080E090E02F
:1001100029D2E5D181E090E025D295ED9A95F1F7CD
:10012000000080E090E01ED280916F00823019F0D4
:10013000C0936F0003C0D0936D0058C0BFD186D16B
:10014000811103C096D1882321F01BD2C0936F0088
:100150004DC010936F004AC0B1D19ED1882321F0C9
:10016000C0936F000ED242C071D1F82E82D18F2978
:1001700061F007D254D2811139C04FD100936F0082
:1001800010927100D0936D0031C010936F004FD268
:1001900018D223D23AD20FD248D210926F00D09305
:1001A0006D0081E090E0DED18FE697E10197F1F7F5
:1001B00000C0000080E090E0D5D118C080917100AF
:1001C0008F5F8093710080917100882339F01092C5
:1001D0007100D0936D0010936F0008C08091700083
:1001E00080936F0003C096D1C0936F00DED18091E1
:1001F0006E00813091F410926E0080916C008F5FE0
:10020000853118F480936C0008C010926C008091C6
:100210006B008F5F80936B00F8D104D2882319F0B4
:1002200020D080936A0080916F00843009F051CF14
:10023000F6D181114ECF81E090E094D19EE79A955E
:10024000F1F700C080E090E08DD157D181E090E0DF
:1002500089D189E98A95F1F7000080E090E082D1A8
:0202600038CF95
:10026200CF9310927600E0917B008E2F90E0883041
:10027200910508F090C0FC01EA5EFF4F09941092CC
:10028200770081E090E06DD180E090E06AD181E07A
:1002920083C081E08093770081E090E062D180E0CA
:1002A20090E05FD181E090E05CD180E090E059D1B4
:1002B20081E090E056D180E090E053D149D1109294
:1002C2006B0080E0A5D182E080937B0010927400E5
:1002D200AFD183E080937B0080E05EC080917400A8
:1002E200843050F098D11092740010927B009ED10D
:1002F20081E08093760050C0E0916800F09169003F
:10030200E80FF11D9081909373008F5F80937400CA
:1003120010926B0080E07CD184E080937B0087E0C8
:100322008093720027E00FC0209172002150209329
:100332007200222344F483E080937B0081E0809367
:10034200760080E029C08091730090E002C095950C
:1003520087952A95E2F7C82FC17010926B0080E052
:1003620057D1C13021F487E080937B0008C086E03A
:1003720080937B0081E08093760080E00DC058D1AD
:1003820084E080937B0080E007C045D184E08093C5
:0C0392007B0080E001C080E0CF91089566
:10039E001F920F920FB60F9211242F933F934F93EC
:1003AE005F936F937F938F939F93AF93BF93EF93CF
:1003BE00FF9380916F008093700082E080936F00B6
:1003CE0081E090E0C8D080E090E0C5D081E090E080
:1003DE00C2D080E090E0BFD081E090E0BCD080E061
:1003EE0090E0B9D081E080936D00FF91EF91BF91C5
:1003FE00AF919F918F917F916F915F914F913F91AF
:0C040E002F910F900FBE0F901F901895BB
:10041A0088D0D8D080E0F8D010926B0010927B0080
:10042A0010D0882339F084E690E090936900809395
:10043A006800089580E690E09093690080936800D0
:02044A00089513
:10044C0080917A0081110BC080917900811109C0D3
:10045C0081E090917800913029F080E0089580E05F
:06046C00089580E00895F0
:1004720080917A00813059F480917900811109C00C
:1004820081E090917800992329F080E0089580E03E
:06049200089580E00895CA
:1004980080917800813051F480917900813041F465
:1004A80090917A00913029F080E0089580E00895D5
:0404B80080E0089543
:1004BC0086B3817080937A0086B382FB882780F99B
:1004CC008093790086B383FB882780F9809378002A
:0204DC00089581
:1004DE00379885B7877E806185BF789485B78062AF
:0C04EE0085BF889585B78F7D85BF089578
:1004FA00379885B7877E85BF789485B7806285BF30
:0A050A00889585B78F7D85BF0895A1
:1005140080917B00811107C081E080937B00109261
:08052400750080937600089534
:10052C001FBC88E08EBD85E08BBD8AE18DBD84E06B
:04053C0089BF0895D6
:100540008F9384E080936F0081E080936D008F91A2
:020550001895FC
:100552001FBC8CB58CBD80E680BF80B7836080BF36
:020562000895FA
:10056400009711F4C4980895019709F4C49A089562
:0E0574001ABC13BE83B7856083BF12BE089504
:0E058200F89412BE89B7826089BF78940895FC
:0E059000EC0154D052D0CE0152D0CE0151D049
:0C059E008F9381E080936E008F91189580
:0C05AA00F8948BB780628BBF78940895A2
:0C05B600F89489B78D7F89BF7894089570
:0C05C200F89489B78B7B89BF789408956A
:0C05CE00F89489B7846089BF7894089580
:0C05DA0081E08093750010927B00089572
:0A05E60080E886BD81E086BD08951F
:0A05F00017BA87B3826187BB089534
:0805FA0083E080BD37980895ED
:0806020085B3896085BB0895F2
:08060A0081E080937600089561
:0606120080936C000895C6
:06061800B998C19A089593
:06061E00809177000895B1
:06062400809176000895AC
:04062A0012BE08955F
:04062E0010BE08955D
:04063200B99A0895D4
:02063600E4CC12
:02063800189513
:02063A00089521
:02063C0008951F
:02063E0008951D
:0206400035DDA6
:04064200EDAB555671
:04064600EB56AAAC19
:01064A0006A9
:01064B0008A6
:00000001FF
