:1000000017C06BC190C17DC27BC223C279C278C2C6
:1000100077C276C275C274C273C272C271C2006006
:100020000062800062006300050C006300698000CC
:1000300011241FBECFE5D1E0DEBFCDBFEEE1F0E081
:1000400040E017C0B591A59135912591059107FD27
:100050000CC095918591EF01F92FE82F05900D9235
:10006000A217B307D9F7FE0104C01D92A217B30768
:10007000E1F7EF32F40731F703D01DC2F894FFCF58
:10008000F89432D23AD235D20FD2FCD01092650019
:100090001092640010926100D4E016E002E0FF24A8
:1000A000F394809161008230D9F028F4882359F0CC
:1000B000813071F0BCC0843009F45EC030F186300C
:1000C00009F491C0B4C0D8D1B8D17894F09261004D
:1000D00099D180916100833009F4A9C00093610037
:1000E00080D147D1811103C057D1882359F081E0D5
:1000F00090E0CBD180E090E0C8D1CFD19ED1D09319
:10010000610095C01093610092C0809163008F5F81
:100110008093630081E090E0B8D180E090E0B5D1B9
:1001200081E090E0B2D180E090E0AFD181E090E05A
:10013000ACD180E090E0A9D181E090E0A6D180E050
:1001400090E0A3D181E090E0A0D180E090E09DD14B
:1001500081E090E09AD180E090E097D180916300B7
:10016000882329F0109263001093610060C0809191
:100170006200809361005BC034D121D18823B1F04B
:100180005CD181E090E081D187EE93E00197F1F7B7
:1001900000C0000080E090E078D181E090E075D16F
:1001A00080E090E072D1D093610041C0E2D0C82FCE
:1001B000F3D08C2BB1F082B78F3F79F012BE109242
:1001C000630081E090E061D187EB9BE00197F1F75C
:1001D00000C0000080E090E058D12FD1D0936100A2
:1001E00026C0109361003FD173D178D112BE109216
:1001F000610081E090E049D18FE697E10197F1F746
:1002000000C0000080E090E040D18FE697E10197C8
:10021000F1F700C0000081E090E037D18FE697E170
:100220000197F1F700C0000080E090E02ED18091AE
:1002300061008430F9F481E090E027D180E090E023
:1002400024D181E090E021D180E090E01ED1E8D07F
:1002500081E090E01AD180E090E017D181E090E059
:1002600014D180E090E011D181E090E00ED180E0E7
:1002700090E00BD180916000813009F012CF109294
:0402800060000FCF3C
:1002840080E090E000D187E99AE30197F1F700C09C
:10029400000081E090E0F7D09FEF20E782E09150EA
:1002A40020408040E1F700C0000080E090E0EBD007
:1002B40087E99AE30197F1F700C0000081E090E03C
:1002C400E2D087E99AE30197F1F700C0000080E0EB
:0602D40090E0D9D008956E
:1002DA001F920F920FB60F9211242F933F934F93B1
:1002EA005F936F937F938F939F93AF93BF93EF9394
:1002FA00FF93E3D082E080936100FF91EF91BF9179
:10030A00AF919F918F917F916F915F914F913F91A3
:0C031A002F910F900FBE0F901F901895B0
:100326001F920F920FB60F9211242F933F934F9364
:100336005F936F937F938F939F93AF93BF93EF9347
:10034600FF9384E080936100C0D0FF91EF91BF914D
:10035600AF919F918F917F916F915F914F913F9157
:0C0366002F910F900FBE0F901F90189564
:100372008091680081110BC080916700811109C0D2
:1003820081E090916600913029F080E0089580E04C
:06039200089580E00895CB
:1003980080916800813059F480916700811109C00B
:1003A80081E090916600992329F080E0089580E02B
:0603B800089580E00895A5
:1003BE0080916600813051F480916700813041F464
:1003CE0090916800913029F080E0089580E00895C2
:0403DE0080E008951E
:1003E20086B381708093680086B382FB882780F988
:1003F2008093670086B383FB882780F98093660029
:0204020008955B
:10040400379885B7877E806185BF789485B7806289
:0C04140085BF889585B78F7D85BF089552
:10042000379885B7877E85BF789485B7806285BF0A
:0A043000889585B78F7D85BF08957C
:10043A00F8948BB780628BBF85B7826085BF85B31E
:08044A00896085BB78940895D8
:100452008F93809161008093620083E080936100BA
:040462008F911895C9
:10046600F8948BB780648BBF85B78D7F85BF7894F2
:020476000895E7
:1004780081E085BF8BB780628BBF85B3896085BB00
:020488000895D5
:10048A00009711F4C4980895019709F4C49A08953D
:0E049A00F89412BE89B7826089BF78940895E5
:0E04A8001ABC13BE83B7856083BF12BE0895D1
:0E04B600EC0126D024D0CE0124D0CE0123D0DC
:0C04C400F8948BB78F7B8BBF7894089561
:0C04D000F8948BB78F7D8BBF7894089553
:0C04DC00F89489B78D7F89BF789408954B
:0A04E80080E886BD81E086BD08951E
:0804F20083E080BD37980895F6
:0604FA0017BABC9A089538
:020500007FCDAD
:0205020018954A
:02050400089558
:02050600089556
:02050800089554
:02050A00B8DD5A
:01050C0006E8
:00000001FF
