:1000000027C0E8C26CC2E7C299C239C2E3C2E2C2E9
:10001000E1C2E0C2DFC2DEC2DDC2DCC2DBC264C05C
:1000200066C0E4C06FC07BC0F6C0C9C00060006895
:100030000005E00068007080007000710005E800B5
:1000400071007280007200730005E90073007C800B
:1000500011241FBECFE5D1E0DEBFCDBFECE2F0E062
:1000600040E017C0B591A59135912591059107FD07
:100070000CC095918591EF01F92FE82F05900D9215
:10008000A217B307D9F7FE0104C01D92A217B30748
:10009000E1F7E035F40731F703D049C2F894FFCF18
:1000A000F89470D279D273D234D20FD279D283D26B
:1000B00010926F0081E080936D00C4E0D1E016E003
:1000C00005E080916D00813009F0A8C010926D00AC
:1000D000E0916F008E2F90E08730910508F09EC070
:1000E000FC01E15FFF4F09942FD2D0936F00B9D18B
:1000F00080916F00823019F0C0936F0003C0D093DD
:100100006D008CC09DD164D1811103C074D188234E
:1001100019F0C0936F0082C010936F007FC090D120
:100120007DD1882379F0C0936F0081E090E0E9D120
:1001300080E090E0E6D181E090E0E3D180E090E0E3
:10014000E0D16CC045D1F82E56D18F29F1F081E075
:1001500090E0D7D180E090E0D4D181E090E0D1D19F
:1001600080E090E0CED181E090E0CBD180E090E0E3
:10017000C8D1D6D123D2811151C011D100936F00C3
:1001800010927100D0936D0049C010936F0081E010
:1001900090E0B7D180E090E0B4D181E090E0B1D1BF
:1001A00080E090E0AED181E090E0ABD180E090E0E3
:1001B000A8D181E090E0A5D180E090E0A2D106D264
:1001C000CFD1DAD1F1D1C6D1FFD110926F00D09347
:1001D0006D0081E090E095D18FE697E10197F1F70E
:1001E00000C0000080E090E08CD118C080917100C8
:1001F0008F5F8093710080917100882339F0109295
:100200007100D0936D0010936F0008C08091700052
:1002100080936F0003C04DD1C0936F0095D1809142
:100220006E00813091F410926E0080916C008F5FAF
:10023000863118F480936C0008C010926C00809195
:100240006B008F5F80936B00AFD1BBD1882319F017
:100250000CD080936A0080916F00843009F031CF18
:0A026000ADD181112ECF18D12CCFA3
:10026A00CF931092760080917B00823099F128F426
:10027A00882369F0813079F08AC0853009F481C019
:10028A00863009F478C0833009F081C049C01092E1
:10029A00770081E07DC081E08093770081E090E083
:1002AA002BD180E090E028D181E090E025D180E058
:1002BA0090E022D181E090E01FD180E090E01CD153
:1002CA0012D110926B0080E06ED182E080937B00A5
:1002DA0080E00EC080917400843050F067D1109293
:1002EA00740010927B006DD181E08093760050C03B
:1002FA00E0916800F0916900E80FF11D90819093F8
:10030A0073008F5F8093740010926B0080E04BD172
:10031A0083E080937B0087E08093720027E00FC020
:10032A0020917200215020937200222344F482E02B
:10033A0080937B0081E08093760080E029C08091E1
:10034A00730090E002C0959587952A95E2F7C82F29
:10035A00C17010926B0080E026D1C13021F486E092
:10036A0080937B0008C085E080937B0081E08093C6
:10037A00760080E00DC027D183E080937B0080E087
:10038A0007C014D183E080937B0080E001C080E045
:04039A00CF91089562
:10039E0095D0E5D080E005D110926B0010927B00D5
:1003AE0010D0882339F084E690E090936900809312
:1003BE006800089580E690E090936900809368004D
:0203CE00089590
:1003D00080917A0081110BC080917900811109C050
:1003E00081E090917800913029F080E0089580E0DC
:0603F000089580E008956D
:1003F60080917A00813059F480917900811109C089
:1004060081E090917800992329F080E0089580E0BA
:06041600089580E0089546
:10041C0080917800813051F480917900813041F4E1
:10042C0090917A00913029F080E0089580E0089551
:04043C0080E00895BF
:1004400086B3817080937A0086B382FB882780F917
:100450008093790086B383FB882780F980937800A6
:020460000895FD
:10046200379885B7877E806185BF789485B780622B
:0C04720085BF889585B78F7D85BF0895F4
:10047E008F9380916F008093700082E080936F0065
:0A048E0081E080936D008F911895B6
:10049800379885B7877E85BF789485B7806285BF92
:0A04A800889585B78F7D85BF089504
:1004B20080917B00811107C081E080937B001092C4
:0804C200750080937600089597
:1004CA001FBC88E08EBD85E08BBD8AE18DBD84E0CE
:0404DA0089BF089539
:1004DE008F9384E080936F0081E080936D008F9105
:0204EE0018955F
:1004F0001FBC8CB58CBD80E680BF80B7836080BF99
:0205000008955C
:10050200009711F4C4980895019709F4C49A0895C4
:0E0512001ABC13BE83B7856083BF12BE089566
:0E052000F89412BE89B7826089BF789408955E
:0E052E00EC0154D052D0CE0152D0CE0151D0AB
:0C053C008F9381E080936E008F911895E2
:0C054800F8948BB780628BBF7894089504
:0C055400F89489B78D7F89BF78940895D2
:0C056000F89489B78B7B89BF78940895CC
:0C056C00F89489B7846089BF78940895E2
:0C05780081E08093750010927B000895D4
:0A05840080E886BD81E086BD089581
:0A058E0017BA87B3826187BB089596
:0805980083E080BD379808954F
:0805A00085B3896085BB089555
:0805A80081E0809376000895C4
:0605B00080936C00089529
:0605B600B998C19A0895F6
:0605BC0080917700089514
:0605C2008091760008950F
:0405C80012BE0895C2
:0405CC0010BE0895C0
:0405D000B99A089537
:0205D40015CD43
:0205D600189576
:0205D800089584
:0205DA00089582
:0205DC00089580
:0205DE005EDDE0
:0405E000EDAB5556D4
:0405E400F5AB5556C8
:0105E800060C
:0105E9000809
:00000001FF
