:1000000011C0F7C0F6C0F6C0C7C0F3C0F2C0F1C05F
:10001000F0C0F1C0EEC0EDC0ECC0EBC0EAC00060C3
:100020000064800011241FBECFE5D1E0DEBFCDBF4C
:10003000EEE1F0E040E017C0B591A5913591259132
:10004000059107FD0CC095918591EF01F92FE82FDF
:1000500005900D92A217B307D9F7FE0104C01D92B7
:10006000A217B307E1F7E332F40731F703D0BAC0C0
:04007000F894FFCF32
:10007400CF93DF9300D00F92CDB7DEB7F89480E82A
:1000840086BD81E086BD87E187BB10BE1FBC8CE0C6
:100094008EBD85E08BBD89E18DBD84E489BF7894F4
:1000A40019828FEF8A831B828FEC97E00197F1F717
:1000B40000C0000010BE8BD010926300D12C00E071
:1000C40010E0E12C6894CC24C1F80F2EF3E0BF2E8D
:1000D400F02D6894AA24A2F8FF24F3948091600080
:1000E4008130E1F71092600080916300813061F00B
:1000F40028F0823009F18330F1F1F0CFF0926300FF
:10010400C29AC29A10E008C0C29AC29A133020F070
:100114001092630010E0E2CFE1E0F0E0EC0FFD1F8D
:10012400E10FF11DE0801F5F10926100C092630037
:10013400C49AC49A00E009C0C49AC49A083028F04A
:10014400F0926300F0926000C9CF8E2D90E0002EF3
:1001540002C0959587950A94E2F70F5F80FD02C06F
:10016400DF2C01C0DA2C109261001092620010BEE4
:100174002ED0B092630080916100811102C0B99ABF
:10018400ADCF80916100D81610F0B998A7CFC09276
:040194006300A4CF91
:100198001F921FB61F9211248F93809162008F5F68
:1001A80080936200809162008E3050F0109262005D
:1001B800809161008F5F8093610081E0809360008F
:0A01C8008F911F901FBE1F90189525
:1001D2001FBC8CB58CBD80E680BF80B7836080BFBA
:0201E20008957E
:0E01E400EC0109D007D0CE0107D0CE0106D025
:0201F20006CF36
:0201F40018955C
:0201F60018955A
:0201F800089568
:0201FA00089566
:0201FC00089564
:0201FE0038DFE8
:00000001FF
