:1000000011C066C165C165C136C162C161C160C14F
:100010005FC160C15DC15CC15BC15AC159C10060B3
:100020000065800011241FBECFE5D1E0DEBFCDBF4B
:10003000EEE1F0E040E017C0B591A5913591259132
:10004000059107FD0CC095918591EF01F92FE82FDF
:1000500005900D92A217B307D9F7FE0104C01D92B7
:10006000A217B307E1F7E332F40731F703D029C150
:04007000F894FFCF32
:10007400CF93DF93CDB7DEB728970FB6F894DEBFE2
:100084000FBECDBFF89480E886BD81E086BD87E1D0
:1000940087BB10BE1FBC88E08EBD85E08BBD8AE1A6
:1000A4008DBD84E489BF78948AE7898325ED2A830A
:1000B4009AEA9B838BEA8C8336EF3D832E839F835E
:1000C40088878FEC97E00197F1F700C0000010BE1D
:1000D400EDD01092640010E000E0B12CFF24F39402
:1000E4006894EE24E2F80F2EF5E0AF2EF02D68941C
:1000F400DD24D4F86894CC24C1F880916000813068
:10010400E1F71092600080916400823009F466C0C7
:1001140028F4882361F0813071F1EFCF843009F441
:1001240087C008F489C0853009F47EC0E6CFF09218
:100134006400B998809163008F5F80936300823379
:1001440049F49FEF28EF85E1915020408040E1F78A
:1001540000C0000080916300843608F482C09FEFE1
:1001640028EF85E1915020408040E1F700C0000075
:100174001092630076C088B38E2588BB88B38E2521
:1001840088BB043058F0B998109264008FE79EE35E
:100194000197F1F700C0000000E0AFCF8091630049
:1001A400833340F0E5E0F0E0EC0FFD1FE00FF11DBC
:1001B400B08007C0E1E0F0E0EC0FFD1FE00FF11D9F
:1001C400B0800F5F10926100C092640088B38D25E7
:1001D40088BB88B38D2588BB17E00DC088B38D25F7
:1001E40088BB88B38D2588BB11232CF4F09264005E
:1001F400F092600082CF8B2D90E0012E02C0959585
:1002040087950A94E2F7115080FF03C0A09264001E
:1002140002C0E0926400109261001092620010BE6D
:1002240045D0F092600069CFB99AC092640065CF5E
:10023400B998C092640061CF88B38F2588BB88B316
:100244008F2588BB80916100811102C0B99A55CF76
:1002540080916100811102C0B9984FCFC0926400AF
:100264004CCF88B38E2588BB88B38E2588BB00E02D
:0202740095CF24
:100276001F921FB61F9211248F93809162008F5F89
:100286008093620080916200853150F01092620086
:10029600809161008F5F8093610081E080936000B0
:0A02A6008F911F901FBE1F90189546
:1002B0001FBC8CB58CBD80E680BF80B7836080BFDB
:0202C00008959F
:0E02C200EC0109D007D0CE0107D0CE0106D046
:0202D00097CEC7
:0202D20018957D
:0202D40018957B
:0202D600089589
:0202D800089587
:0202DA00089585
:0202DC00C9DE79
:00000001FF
